S012000066616E436F6E74726F6C2E73726563FC
S11300000C9434000C9451000C9451000C94510045
S11300100C9451000C9451000C9451000C94510018
S11300200C9451000C9451000C9451000C94510008
S11300300C9451000C9451000C9451000C945100F8
S11300400C9451000C9451000C9451000C945100E8
S11300500C9451000C9451000C9451000C945100D8
S11300600C9451000C94510011241FBECFEFD8E022
S1130070DEBFCDBF11E0A0E0B1E0ECE4F5E002C0EA
S113008005900D92A431B107D9F721E0A4E1B1E0C4
S113009001C01D92A631B207E1F70E94CF000C9473
S11300A0A4020C940000CF93DF93009739F42398B3
S11300B0109215011092140160E032C0EC01BC01F1
S11300C0990F880B990B0E94AB0120E030E049E9BD
S11300D051E40E94370220E030E04FE752E40E94EE
S11300E00E010E947A01C130D105B9F48091140146
S11300F090911501892BA1F4239A2FEF8DE292E2BE
S1130100215080409040E1F700C0000081E090E081
S1130110909315018093140103C02A9709F46FEF9B
S11301206093B300E0EBF0E080818068808380819D
S113013083608083E1EBF0E0808182608083DF91E3
S1130140CF910895BC011BB885B1887E85B9161678
S1130150170624F5E0E0F1E020E030E0A1E0B0E0B3
S1130160263031055CF44BB1CD01008002C0880F0C
S1130170991F0A94E2F7842B8BB90AC095B1AD019B
S1130180008002C0440F551F0A94E2F7492B45B979
S11301902F5F3F4F32962617370711F7089517B888
S11301A08FEF88B98AB984B9C1E0D0E0CE010E944A
S11301B0A2002FEF83EC99E0215080409040E1F7BA
S11301C000C000002196CB30D10581F72FEF83EDDD
S11301D090E3215080409040E1F700C00000C0E06F
S11301E0D0E0319905C0CA30D105D9F3219605C0B4
S11301F03099F7CF2097A9F32197CE010E9453009D
S1130200CE010E94A2002FEF83EC99E021508040A0
S11302109040E1F700C00000E4CF5058BB27AA2764
S11302200E9425010C94FD010E94EF0138F00E9408
S1130230F60120F039F49F3F19F426F40C94EC01F4
S11302400EF4E095E7FB0C94E601E92F0E940E0200
S113025058F3BA17620773078407950720F079F4F7
S1130260A6F50C9430020EF4E0950B2EBA2FA02DB7
S11302700B01B90190010C01CA01A0011124FF274F
S1130280591B99F0593F50F4503E68F11A16F0404A
S1130290A22F232F342F4427585FF3CF4695379549
S11302A02795A795F0405395C9F77EF41F16BA0B0E
S11302B0620B730B840BBAF09150A1F0FF0FBB1FBC
S11302C0661F771F881FC2F70EC0BA0F621F731F05
S11302D0841F48F4879577956795B795F7959E3F62
S11302E008F0B0CF9395880F08F09927EE0F9795F3
S11302F0879508950E94160288F09F5798F0B92FA9
S11303009927B751B0F0E1F0660F771F881F991F46
S11303101AF0BA95C9F714C0B13091F00E943002B6
S1130320B1E008950C943002672F782F8827B85FC6
S113033039F0B93FCCF3869577956795B395D9F79E
S11303403EF490958095709561957F4F8F4F9F4FA8
S11303500895E89409C097FB3EF4909580957095B4
S113036061957F4F8F4F9F4F9923A9F0F92F96E9FD
S1130370BB279395F695879577956795B795F11172
S1130380F8CFFAF4BB0F11F460FF1BC06F5F7F4F0F
S11303908F4F9F4F16C0882311F096E911C0772321
S11303A021F09EE8872F762F05C0662371F096E82A
S11303B0862F70E060E02AF09A95660F771F881FF9
S11303C0DAF7880F9695879597F9089597F99F67B7
S11303D080E870E060E008959FEF80EC08950024C9
S11303E00A941616170618060906089500240A9496
S11303F012161306140605060895092E0394000C1C
S113040011F4882352F0BB0F40F4BF2B11F460FFAA
S113041004C06F5F7F4F8F4F9F4F089557FD9058D3
S1130420440F551F59F05F3F71F04795880F97FBB4
S1130430991F61F09F3F79F087950895121613066E
S11304401406551FF2CF4695F1DF08C0161617069D
S11304501806991FF1CF86957105610508940895D2
S1130460E894BB2766277727CB0197F908950E9464
S11304704A020C94FD010E94EF0138F00E94F6013B
S113048020F0952311F00C94E6010C94EC01112456
S11304900C9431020E940E0270F3959FC1F3950FE4
S11304A050E0551F629FF001729FBB27F00DB11DF4
S11304B0639FAA27F00DB11DAA1F649F6627B00D84
S11304C0A11D661F829F2227B00DA11D621F739F6D
S11304D0B00DA11D621F839FA00D611D221F749F7B
S11304E03327A00D611D231F849F600D211D822FC2
S11304F0762F6A2F11249F5750409AF0F1F08823E9
S11305004AF0EE0FFF1FBB1F661F771F881F915015
S11305105040A9F79E3F510580F00C94E6010C94DD
S113052031025F3FE4F3983ED4F38695779567955F
S1130530B795F795E7959F5FC1F7FE2B880F911D3F
S10F05409695879597F90895F894FFCFDD
S113054C020003000400050006000700000001007F
S107055C0200040091
S9030000FC
