S00E00006B65797061642E7372656398
S11300000C9434000C943E000C943E000C943E007E
S11300100C943E000C943E000C943E000C943E0064
S11300200C943E000C943E000C943E000C943E0054
S11300300C943E000C943E000C943E000C943E0044
S11300400C943E000C943E000C943E000C943E0034
S11300500C943E000C943E000C943E000C943E0024
S11300600C943E000C943E0011241FBECFEFD8E048
S1130070DEBFCDBF0E9460000C9478000C94000099
S113008018161906E4F420E030E040E248B95FE5D0
S11300906AEE70E0515060407040E1F700C000002B
S11300A018B85FE56AEE70E0515060407040E1F7C7
S11300B000C000002F5F3F4F2817390739F7089514
S11300C080E287B984E08AB98BB94D9B04C083E090
S11300D090E00E9440004B9B04C081E090E00E94AD
S11300E0400081EE94E00197F1F700C00000EDCFED
S10700F0F894FFCFAE
S9030000FC
