S00E00006B65797061642E7372656398
S11300000C9434000C9449000C9449000C9449005D
S11300100C9449000C9449000C9449000C94490038
S11300200C9449000C9449000C9449000C94490028
S11300300C9449000C9449000C9449000C94490018
S11300400C9449000C9449000C9449000C94490008
S11300500C9449000C9449000C9449000C944900F8
S11300600C9449000C94490011241FBECFEFD8E032
S1130070DEBFCDBF11E0A0E0B1E0E8E8F1E002C0EE
S113008005900D92A031B107D9F70E9465000C9438
S1130090C2000C94000018161906B4F420E030E0F5
S11300A040E248B9EFE4F3EC3197F1F700C0000007
S11300B018B8EFE4F3EC3197F1F700C000002F5FBC
S11300C03F4F2817390769F70895CF93DF93CDB7CA
S11300D0DEB760970FB6F894DEBF0FBECDBF80E2E7
S11300E087B984EC8AB988E0E0E0F1E0DE0111969A
S11300F001900D928A95E1F788E0E8E0F1E0DE01F5
S1130100199601900D928A95E1F788248394912C95
S1130110CE010B963C016401F3018081F2E06F0E85
S1130120711C8BB983EC99E00197F1F700C00000D2
S1130130FE0133967F015601F3E0AF0EB11C860138
S1130140F7018081F2E0EF0EF11C99B1940102C035
S1130150220F331F8A95E2F7892F90E0822393239D
S1130160892B19F0C8010E944B000F5F1F4FA01686
S1130170B10631F783E0C80ED11C9AE0C916D10448
S10B018059F6C6CFF894FFCF35
S11301880000030001000500000004008000400096
S9030000FC
