S00E00006C63646C69622E73726563AC
S11300000C9434000C943E000C943E000C943E007E
S11300100C943E000C943E000C943E000C943E0064
S11300200C943E000C943E000C943E000C943E0054
S11300300C943E000C943E000C943E000C943E0044
S11300400C943E000C943E000C943E000C943E0034
S11300500C943E000C943E000C943E000C943E0024
S11300600C943E000C943E0011241FBECFEFD8E048
S1130070DEBFCDBF0E9452000C9480000C9400009F
S11300802E9A00002E98000008952F98000081E019
S11300908BB983EF91E00197F1F700C000000E9453
S11300A0400008958FEF8AB980EC84B915B88CE0CC
S11300B08BB989EF90E00197F1F700C000000E942E
S11300C040000E9445000F2EF1E1FF2EF02D00E0CC
S11300D01FE0CF2DD02F2F9A1BB989EF90E0019705
S11300E0F1F700C000000E94400087EA91E6019702
S11300F0F1F700C00000219771F70E944500E9CF95
S1070100F894FFCF9D
S9030000FC
