S00E00006C63646C69622E73726563AC
S11300000C9434000C943E000C943E000C943E007E
S11300100C943E000C943E000C943E000C943E0064
S11300200C943E000C943E000C943E000C943E0054
S11300300C943E000C943E000C943E000C943E0044
S11300400C943E000C943E000C943E000C943E0034
S11300500C943E000C943E000C943E000C943E0024
S11300600C943E000C943E0011241FBECFEFD8E048
S1130070DEBFCDBF0E9440000C945A000C940000D7
S11300808FEF8AB980EC84B993E015B885B18760A5
S113009085B985B1866085B9E9EFF0E03197F1F76C
S11300A000C000009BB9E9EFF0E03197F1F700C020
S10B00B00000EBCFF894FFCF30
S9030000FC
